{
  "contractName": "RealEstateNFT",
  "abi": [
    {
      "inputs": [],
      "stateMutability": "nonpayable",
      "type": "constructor"
    },
    {
      "inputs": [],
      "name": "government",
      "outputs": [
        {
          "internalType": "address payable",
          "name": "",
          "type": "address"
        }
      ],
      "stateMutability": "view",
      "type": "function",
      "constant": true
    },
    {
      "inputs": [
        {
          "internalType": "uint256",
          "name": "",
          "type": "uint256"
        }
      ],
      "name": "properties",
      "outputs": [
        {
          "internalType": "address payable",
          "name": "owner",
          "type": "address"
        },
        {
          "internalType": "uint256",
          "name": "price",
          "type": "uint256"
        },
        {
          "internalType": "uint256",
          "name": "tax",
          "type": "uint256"
        },
        {
          "internalType": "address",
          "name": "approvedBuyer",
          "type": "address"
        },
        {
          "internalType": "bool",
          "name": "isValid",
          "type": "bool"
        }
      ],
      "stateMutability": "view",
      "type": "function",
      "constant": true
    },
    {
      "inputs": [],
      "name": "propertyCounter",
      "outputs": [
        {
          "internalType": "uint256",
          "name": "",
          "type": "uint256"
        }
      ],
      "stateMutability": "view",
      "type": "function",
      "constant": true
    },
    {
      "inputs": [
        {
          "internalType": "uint256",
          "name": "",
          "type": "uint256"
        },
        {
          "internalType": "uint256",
          "name": "",
          "type": "uint256"
        }
      ],
      "name": "transactions",
      "outputs": [
        {
          "internalType": "address",
          "name": "previousOwner",
          "type": "address"
        },
        {
          "internalType": "address",
          "name": "newOwner",
          "type": "address"
        },
        {
          "internalType": "uint256",
          "name": "price",
          "type": "uint256"
        },
        {
          "internalType": "uint256",
          "name": "timestamp",
          "type": "uint256"
        }
      ],
      "stateMutability": "view",
      "type": "function",
      "constant": true
    },
    {
      "inputs": [
        {
          "internalType": "address",
          "name": "seller",
          "type": "address"
        }
      ],
      "name": "mint",
      "outputs": [],
      "stateMutability": "nonpayable",
      "type": "function"
    },
    {
      "inputs": [
        {
          "internalType": "uint256",
          "name": "_propertyId",
          "type": "uint256"
        },
        {
          "internalType": "address",
          "name": "_buyer",
          "type": "address"
        }
      ],
      "name": "approveSale",
      "outputs": [],
      "stateMutability": "nonpayable",
      "type": "function"
    },
    {
      "inputs": [
        {
          "internalType": "uint256",
          "name": "_propertyId",
          "type": "uint256"
        }
      ],
      "name": "transfer",
      "outputs": [],
      "stateMutability": "payable",
      "type": "function",
      "payable": true
    },
    {
      "inputs": [
        {
          "internalType": "uint256",
          "name": "_propertyId",
          "type": "uint256"
        }
      ],
      "name": "getProperty",
      "outputs": [
        {
          "internalType": "address",
          "name": "",
          "type": "address"
        },
        {
          "internalType": "uint256",
          "name": "",
          "type": "uint256"
        },
        {
          "internalType": "uint256",
          "name": "",
          "type": "uint256"
        },
        {
          "internalType": "address",
          "name": "",
          "type": "address"
        }
      ],
      "stateMutability": "view",
      "type": "function",
      "constant": true
    },
    {
      "inputs": [
        {
          "internalType": "uint256",
          "name": "_propertyId",
          "type": "uint256"
        }
      ],
      "name": "getTransaction",
      "outputs": [
        {
          "internalType": "address",
          "name": "",
          "type": "address"
        },
        {
          "internalType": "address",
          "name": "",
          "type": "address"
        },
        {
          "internalType": "uint256",
          "name": "",
          "type": "uint256"
        },
        {
          "internalType": "uint256",
          "name": "",
          "type": "uint256"
        }
      ],
      "stateMutability": "view",
      "type": "function",
      "constant": true
    },
    {
      "inputs": [
        {
          "internalType": "uint256",
          "name": "_propertyId",
          "type": "uint256"
        },
        {
          "internalType": "uint256",
          "name": "newPrice",
          "type": "uint256"
        }
      ],
      "name": "changePrice",
      "outputs": [],
      "stateMutability": "nonpayable",
      "type": "function"
    },
    {
      "inputs": [
        {
          "internalType": "uint256",
          "name": "_propertyId",
          "type": "uint256"
        }
      ],
      "name": "destroyProperty",
      "outputs": [],
      "stateMutability": "nonpayable",
      "type": "function"
    },
    {
      "inputs": [
        {
          "internalType": "uint256",
          "name": "_propertyId",
          "type": "uint256"
        }
      ],
      "name": "makeValid",
      "outputs": [],
      "stateMutability": "nonpayable",
      "type": "function"
    }
  ],
  "bytecode": "0x608060405234801561001057600080fd5b50600080546001600160a01b03191633179055610cb8806100326000396000f3fe6080604052600436106100a75760003560e01c80635b82ff6a116100645780635b82ff6a146101d85780636a627842146101f8578063b2be418014610218578063b3de019c14610238578063d090e47e14610258578063f7b108081461027c57600080fd5b806312514bba146100ac5780631f0c6cfa146100c15780632672f526146100e157806332665ffb1461011e57806333ea3dc81461016d5780634eaf9db6146101b8575b600080fd5b6100bf6100ba366004610b18565b61030f565b005b3480156100cd57600080fd5b506100bf6100dc366004610b18565b610574565b3480156100ed57600080fd5b50600054610101906001600160a01b031681565b6040516001600160a01b0390911681526020015b60405180910390f35b34801561012a57600080fd5b5061013e610139366004610b18565b6105c2565b604080516001600160a01b03958616815260208101949094528301919091529091166060820152608001610115565b34801561017957600080fd5b5061018d610188366004610b18565b610640565b604080516001600160a01b039586168152949093166020850152918301526060820152608001610115565b3480156101c457600080fd5b5061018d6101d3366004610b5d565b61076f565b3480156101e457600080fd5b506100bf6101f3366004610b18565b6107c1565b34801561020457600080fd5b506100bf610213366004610af6565b610809565b34801561022457600080fd5b506100bf610233366004610b31565b61094d565b34801561024457600080fd5b506100bf610253366004610b5d565b610a1b565b34801561026457600080fd5b5061026e60025481565b604051908152602001610115565b34801561028857600080fd5b506102d8610297366004610b18565b600160208190526000918252604090912080549181015460028201546003909201546001600160a01b0393841693919291811690600160a01b900460ff1685565b604080516001600160a01b03968716815260208101959095528401929092529092166060820152901515608082015260a001610115565b6000818152600160208190526040909120600301548291600160a01b90910460ff161515146103595760405162461bcd60e51b815260040161035090610b7f565b60405180910390fd5b600082815260016020526040902060038101546001600160a01b031633146103b95760405162461bcd60e51b8152602060048201526013602482015272213abcb2b9103737ba1030b8383937bb32b21760691b6044820152606401610350565b80600101543410156104055760405162461bcd60e51b815260206004820152601560248201527424b739bab33334b1b4b2b73a103830bcb6b2b73a1760591b6044820152606401610350565b68022b1c8c1227a0000081600101541061042f576005816001015461042a9190610c02565b610440565b600381600101546104409190610c02565b60028201819055815460018301546001600160a01b03909116916108fc916104689190610c24565b6040518115909202916000818181858888f19350505050158015610490573d6000803e3d6000fd5b506000805460028301546040516001600160a01b039092169281156108fc029290818181858888f193505050501580156104ce573d6000803e3d6000fd5b506000928352600360208181526040808620815160808101835285546001600160a01b039081168252338286018181526001808a0154968501968752426060860190815286548083018855968d5297909b209351600490950290930180549483166001600160a01b0319958616178155925199830180549a9092169984169990991790559151600283015591519083015582548116909417825501805490921690915550565b6000546001600160a01b0316331461059e5760405162461bcd60e51b815260040161035090610bb6565b6000908152600160205260409020600301805460ff60a01b1916600160a01b179055565b60008181526001602081905260408220600301548291829182918691600160a01b900460ff161515146106075760405162461bcd60e51b815260040161035090610b7f565b5050506000928352505060016020819052604090912080549181015460028201546003909201546001600160a01b039384169491931690565b600080600080600060036000878152602001908152602001600020805480602002602001604051908101604052809291908181526020016000905b828210156106dd576000848152602090819020604080516080810182526004860290920180546001600160a01b03908116845260018083015490911684860152600282015492840192909252600301546060830152908352909201910161067b565b505050509050806001815181106106f6576106f6610c6c565b6020026020010151602001518160018151811061071557610715610c6c565b6020026020010151600001518260018151811061073457610734610c6c565b6020026020010151604001518360018151811061075357610753610c6c565b6020026020010151606001519450945094509450509193509193565b6003602052816000526040600020818154811061078b57600080fd5b600091825260209091206004909102018054600182015460028301546003909301546001600160a01b0392831695509116925084565b6000546001600160a01b031633146107eb5760405162461bcd60e51b815260040161035090610bb6565b6000908152600160205260409020600301805460ff60a01b19169055565b6000546001600160a01b031633146108335760405162461bcd60e51b815260040161035090610bb6565b6040805160a0810182526001600160a01b0380841680835260006020808501828152858701838152606080880185815260016080808b01828152600280548a528389528d8a209c518d54908d166001600160a01b0319918216178e5597518d85015595518c870155925160039b8c01805494511515600160a01b026001600160a81b0319909516918c169190911793909317909255835487528986528a87208b519283018c528783528287019889529a8201878152429383019384528b548083018d559b885295872091516004909b0290910180549a89169a85169a909a178a559551958901805496909716959092169490941790945551858301559151939092019290925580549161094583610c3b565b919050555050565b6000828152600160208190526040909120600301548391600160a01b90910460ff1615151461098e5760405162461bcd60e51b815260040161035090610b7f565b600083815260016020526040902080546001600160a01b031633146109f55760405162461bcd60e51b815260206004820181905260248201527f4f6e6c7920746865206f776e65722063616e20617070726f76652073616c652e6044820152606401610350565b60030180546001600160a01b0319166001600160a01b0393909316929092179091555050565b6000828152600160208190526040909120600301548391600160a01b90910460ff16151514610a5c5760405162461bcd60e51b815260040161035090610b7f565b6000838152600160205260409020546001600160a01b03163314610ac25760405162461bcd60e51b815260206004820152601c60248201527f796f75206861766520746f206f776e207468652070726f7065727479000000006044820152606401610350565b50600091825260016020819052604090922090910155565b80356001600160a01b0381168114610af157600080fd5b919050565b600060208284031215610b0857600080fd5b610b1182610ada565b9392505050565b600060208284031215610b2a57600080fd5b5035919050565b60008060408385031215610b4457600080fd5b82359150610b5460208401610ada565b90509250929050565b60008060408385031215610b7057600080fd5b50508035926020909101359150565b6020808252601b908201527f596f75722070726f7065727479206973206e6f742076616c69642e0000000000604082015260600190565b6020808252602c908201527f4f6e6c792074686520676f7665726e6d656e742063616e20706572666f726d2060408201526b3a3434b99030b1ba34b7b71760a11b606082015260800190565b600082610c1f57634e487b7160e01b600052601260045260246000fd5b500490565b600082821015610c3657610c36610c56565b500390565b6000600019821415610c4f57610c4f610c56565b5060010190565b634e487b7160e01b600052601160045260246000fd5b634e487b7160e01b600052603260045260246000fdfea26469706673582212201cbbd60c62e44c09cb13bd4178a2c5f4203be3420b111a75e31d19b0f5a7250d64736f6c63430008070033",
  "immutableReferences": {},
  "source": "// SPDX-License-Identifier: MIT\r\n\r\npragma solidity ^0.8.7;\r\n\r\ncontract RealEstateNFT {\r\n    address payable public government;\r\n    mapping (uint256 => Property) public properties;\r\n    uint256 public propertyCounter;\r\n\r\n    struct Property {\r\n        address payable owner;\r\n        uint256 price;\r\n        uint256 tax;\r\n        address approvedBuyer;\r\n        bool isValid;\r\n        // Transaction[] transactions;\r\n    }\r\n\r\n    mapping(uint256 => Transaction[]) public transactions;\r\n\r\n    struct Transaction {\r\n        address previousOwner;\r\n        address newOwner;\r\n        uint256 price;\r\n        uint256 timestamp;\r\n    }\r\n\r\n    constructor(){\r\n        government = payable(msg.sender);\r\n    }\r\n\r\n    function mint(address seller) public onlyGovernment{\r\n        properties[propertyCounter] = Property({\r\n            owner: payable(seller),\r\n            price: 0,\r\n            tax: 0,\r\n            approvedBuyer: address(0),\r\n            isValid: true\r\n            // transactions: new Transaction[]\r\n            \r\n        });\r\n        transactions[propertyCounter].push(Transaction({\r\n                previousOwner: address(0),\r\n                newOwner: seller,\r\n                price: 0,\r\n                timestamp: block.timestamp\r\n            }));\r\n        propertyCounter ++;\r\n    }\r\n\r\n    function approveSale(uint256 _propertyId, address _buyer) public onlyValid(_propertyId){\r\n        Property storage property = properties[_propertyId];\r\n        require(property.owner == msg.sender, \"Only the owner can approve sale.\");\r\n        property.approvedBuyer = _buyer;\r\n    }\r\n\r\n    function transfer(uint256 _propertyId) public payable onlyValid(_propertyId){\r\n        Property storage property = properties[_propertyId];\r\n        require(property.approvedBuyer == msg.sender, \"Buyer not approved.\");\r\n        require(msg.value >= property.price, \"Insufficient payment.\");\r\n\r\n        property.tax=property.price<40000000000000000000? property.price/3: property.price/5;\r\n        property.owner.transfer(property.price - property.tax);\r\n        government.transfer(property.tax);\r\n        transactions[_propertyId].push(Transaction({\r\n            previousOwner: property.owner,\r\n            newOwner: msg.sender,\r\n            price: property.price,\r\n            timestamp: block.timestamp\r\n        }));\r\n        property.owner = payable(msg.sender);\r\n        property.approvedBuyer = address(0);\r\n    }\r\n\r\n    function getProperty(uint256 _propertyId) public view onlyValid(_propertyId) returns(address, uint256, uint256, address) {\r\n        Property storage property = properties[_propertyId];\r\n        return (property.owner, property.price, property.tax, property.approvedBuyer);\r\n    }\r\n\r\n    function getTransaction(uint256 _propertyId) public view returns (address, address, uint256, uint256) {\r\n        Transaction[] memory transaction = transactions[_propertyId];\r\n        return (transaction[1].newOwner, transaction[1].previousOwner,transaction[1].price,transaction[1].timestamp);\r\n    }\r\n\r\n    function changePrice(uint256 _propertyId, uint256 newPrice) public onlyValid(_propertyId){\r\n        require(msg.sender == properties[_propertyId].owner, \"you have to own the property\");\r\n        properties[_propertyId].price = newPrice;\r\n    }\r\n\r\n    function destroyProperty(uint256 _propertyId) public onlyGovernment{\r\n        properties[_propertyId].isValid = false;\r\n    }\r\n\r\n    function makeValid(uint256 _propertyId) public onlyGovernment{\r\n        properties[_propertyId].isValid = true;\r\n    }\r\n\r\n    modifier onlyGovernment() {\r\n        require(msg.sender == government, \"Only the government can perform this action.\");\r\n        _;\r\n    }\r\n\r\n    modifier onlyValid(uint256 _propertyId){\r\n        require(properties[_propertyId].isValid== true, \"Your property is not valid.\");\r\n        _;\r\n    }\r\n\r\n\r\n}",
  "sourcePath": "D:\\Javascript Course\\RealEstate NFT\\RealEstate-NFT\\contracts\\RealEstateNFT.sol",
  "compiler": {
    "name": "solc",
    "version": "0.8.7+commit.e28d00a7.Emscripten.clang"
  },
  "schemaVersion": "3.4.13",
  "updatedAt": "2023-03-15T04:19:42.116Z",
  "networkType": "ethereum",
  "devdoc": {
    "kind": "dev",
    "methods": {},
    "version": 1
  },
  "userdoc": {
    "kind": "user",
    "methods": {},
    "version": 1
  }
}